:100000000C9440010C9468010C9468010C946801F4
:100010000C9468010C9468010C9468010C946801BC
:100020000C9468010C9468010C9468010C946801AC
:100030000C9468010C9468010C9468010C9468019C
:100040000C9437070C9468010C94EF090C94210A66
:100050000C9468010C9468010C9468010C9468017C
:100060000C9468010C946801504120506F776572C0
:1000700009203D2025530D0A00435243204C656E54
:1000800067746809203D2025530D0A004D6F646593
:100090006C0909203D2025530D0A0044617461203C
:1000A0005261746509203D2025530D0A0044594EC4
:1000B00050442F4645415455524500434F4E464902
:1000C000470052465F53455455500052465F4348DF
:1000D00000454E5F52584144445200454E5F4141F5
:1000E0000052585F50575F50302D360054585F41D2
:1000F0004444520052585F414444525F50322D35BF
:100100000052585F414444525F50302D31000D0A77
:1001100000253032780020307800255309256320EF
:100120003D000D0A00203078253032780025530933
:100130002563203D004F4253455256455F54583D7C
:10014000253032783A20504F4C535F434E543D2572
:1001500078204152435F434E543D25780D0A0053A9
:1001600054415455530909203D20307825303278C8
:100170002052585F44523D25782054585F44533DE7
:100180002578204D41585F52543D25782052585FC4
:10019000505F4E4F3D25782054585F46554C4C3D9E
:1001A00025780D0A0000010203040511121314152D
:1001B000160A0B0C0D0E0FD501CE01C701BF015061
:1001C000415F48494748004C415F4D45440050411C
:1001D0005F4C4F570050415F4D494E00F101EA011D
:1001E000E2013136206269747300382062697473E9
:1001F0000044697361626C6564000802FE016E521E
:100200004632344C30312B006E524632344C303151
:100210000025021F0217023235304B425053003284
:100220004D42505300314D42505300000000080031
:1002300002010000030407000000000000000001AC
:10024000020408102040800102040810200102046A
:10025000081020040404040404040402020202023C
:100260000203030303030300000000250028002B02
:100270000000000000240027002A00003107510A76
:1002800011241FBECFEFD8E0DEBFCDBF11E0A0E04C
:10029000B1E0ECE4F0E202C005900D92AC34B1079D
:1002A000D9F722E0ACE4B1E001C01D92A031B20761
:1002B000E1F712E0C0E8D2E004C02297FE010E94FC
:1002C0009D0BCC37D107C9F70E94950A0C942410D6
:1002D0000C9400008EBD00000DB407FEFDCF8EB55E
:1002E00008952CB52F7D2CBD2CB5237F2CBD2CB5AE
:1002F0002C7F2CBD2DB52E7F2DBDFC0181810C9452
:100300007408FC0180810C947408CF92DF92EF9204
:10031000FF920F931F93CF93DF9300D0CDB7DEB73B
:100320008C01E62EF22E60E070E049835A830E9431
:1003300071018E2D8F710E946A01E82E4981C42EB1
:100340005A81D52EF40EFC1439F08FEF0E946A0109
:10035000F60181936F01F7CF61E070E0C8010E9460
:1003600071018E2D0F900F90DF91CF911F910F9102
:10037000FF90EF90DF90CF9008951F93CF93DF937E
:10038000EC01162F60E070E00E947101812F8F71E7
:100390000E946A018FEF0E946A01182F61E070E0ED
:1003A000CE010E947101812FDF91CF911F9108959D
:1003B000CF92DF92EF92FF920F931F93CF93DF9331
:1003C00000D0CDB7DEB78C01E62EF22E60E070E0F3
:1003D00049835A830E9471018E2D8F7180620E9421
:1003E0006A01E82E4981C42E5A81D52EF40EFC14E0
:1003F00031F0F60181916F010E946A01F8CF61E04E
:1004000070E0C8010E9471018E2D0F900F90DF9156
:10041000CF911F910F91FF90EF90DF90CF900895B3
:10042000EF92FF921F93CF93DF931F92CDB7DEB76A
:100430007C01162F60E070E049830E947101812FDA
:100440008F7180620E946A01182F4981842F0E9457
:100450006A0161E070E0C7010E947101812F0F9075
:10046000DF91CF911F91FF90EF900895BF92CF92AF
:10047000DF92EF92FF920F931F93CF93DF938C0144
:10048000D62EB72EFC01C481F42EC41708F4FC2E1E
:10049000F8018681811103C0EC2EEF1801C0E12C18
:1004A00060E070E0C8010E94710181E60E946A016B
:1004B000C82ECD2DDB2DFD0CFC1629F08FEF0E94F0
:1004C0006A018993F9CFCE2DCC2329F08FEF0E94BA
:1004D0006A01C150F9CF61E070E0C8010E9471016A
:1004E0008C2DDF91CF911F910F91FF90EF90DF90B6
:1004F000CF90BF9008951F93CF93DF93EC0160E0FE
:1005000070E00E94710182EE0E946A01182F61E082
:1005100070E0CE010E947101812FDF91CF911F9178
:1005200008951F93CF93DF93EC0160E070E00E9489
:10053000710181EE0E946A01182F61E070E0CE0126
:100540000E947101812FDF91CF911F9108951F9318
:10055000CF93DF93EC0160E070E00E9471018FEFB8
:100560000E946A01182F61E070E0CE010E947101C3
:10057000812FDF91CF911F910895862F90E0262F34
:1005800021701F922F9395958795877099279F9338
:100590008F9364FB882780F91F928F9365FB8827D0
:1005A00080F91F928F9366FB882780F91F928F93A3
:1005B0001F926F938FE591E09F938F930E94090C98
:1005C0008DB79EB70E960FB6F8949EBF0FBE8DBF27
:1005D0000895AF92BF92DF92EF92FF920F931F9315
:1005E000CF93DF9300D0CDB7DEB78C01F42EE22E8F
:1005F000CB0169837A830E94A10B69817A81089774
:1006000010F489E001C080E01F928F937F936F9375
:10061000EDE2F1E0FF93EF930E94090CEF0C0F90D5
:100620000F900F900F900F900F9035E2A32E31E0B6
:10063000B32EFE1499F0DD24D394DF0C6F2DC80186
:100640000E94BD011F928F93BF92AF920E94090C2E
:100650000F900F900F900F90FD2CEBCF82E291E066
:100660009F938F930E94090C0F900F900F900F9003
:10067000DF91CF911F910F91FF90EF90DF90BF908E
:10068000AF9008956F927F928F929F92AF92BF9298
:10069000CF92DF92EF92FF920F931F93CF93DF934E
:1006A000CDB7DEB727970FB6F894DEBF0FBECDBF2C
:1006B0004C01142F722ECB016E837F830E94A10BFD
:1006C0006E817F81089710F489E001C080E01F925D
:1006D0008F937F936F93EAE1F1E0FF93EF930E9492
:1006E000090C710E0F900F900F900F900F900F90BC
:1006F000CE0101967C0146E1C42E41E0D42E51E1A9
:10070000A52E51E0B52E171529F166246394610ECC
:1007100025E0A701612FC4010E948501DF92CF92DD
:100720000E94090C8E010A5F1F4F0F900F900E154B
:100730001F0571F0F80182918F011F928F93BF9274
:10074000AF920E94090C0F900F900F900F90EFCF77
:10075000162DD9CF8EE091E09F938F930E94090CC4
:100760000F900F9027960FB6F894DEBF0FBECDBF47
:10077000DF91CF911F910F91FF90EF90DF90CF907D
:10078000BF90AF909F908F907F906F900895FC01E5
:100790006083418381E08283138280E284831582B7
:1007A0001682108611861286138614861586168682
:1007B00017860895462F603808F04FE765E00C94DF
:1007C0001002613208F060E2FC0164830895CF9367
:1007D000DF93EC0160E00E94BD01482F436060E0C0
:1007E000CE010E94100240E767E0CE010E94100295
:1007F000288539854A855B856C857D858E859F85B5
:10080000A0E00E948F0B41F025E0AE01485F5F4FF2
:100810006AE0CE010E94D801CE010E947B02CE0187
:100820000E94910261E070E0CE010E94810182E8A5
:1008300090E0DF91CF910C94CC07EF92FF920F9351
:100840001F93CF93DF93EC018B010E94A702F82E38
:1008500086FBEE24E0F886FF16C00115110539F07D
:10086000282F30E0359527952770F801208340E444
:1008700067E0CE010E941002F5FE05C040E267E08D
:10088000CE010E9410028E2DDF91CF911F910F910A
:10089000FF90EF90089560E070E00C941D04CF93FA
:1008A000DF93EC010E94360267E1CE010E94BD0198
:1008B0008170DF91CF910895BF92CF92DF92EF9236
:1008C000FF920F931F93CF93DF93CDB7DEB7289797
:1008D0000FB6F894DEBF0FBECDBF6C01B62EE98215
:1008E000FA820B831C832D833E834F8358876111CB
:1008F0000AC0F601E086F1860287138724873587D0
:100900004687578707C0F6E0F61708F435C081E040
:10091000681307C0EB2DF0E0EF54FE4F649125E023
:1009200006C0E62FF0E0EF54FE4F649121E0AE01E7
:100930004F5F5F4FC6010E94D8010B2D10E0F801F8
:10094000E555FE4F6491F6014481C6010E941002F4
:1009500062E0C6010E94BD01F801EB55FE4F049113
:1009600021E030E001C0220F0A95EAF7822B482FE0
:1009700062E0C6010E94100228960FB6F894DEBF0E
:100980000FBECDBFDF91CF911F910F91FF90EF90E0
:10099000DF90CF90BF9008950F931F93CF93DF9375
:1009A0008C01EB0166E00E94BD01482F497FC330F6
:1009B000D10561F0C230D10511F4446008C0C130E6
:1009C000D10511F4426003C0249709F4466066E043
:1009D000C801DF91CF911F910F910C94100266E036
:1009E0000E94BD018670863049F0843049F021E0D4
:1009F00090E0823009F020E0822F089583E001C06A
:100A000082E090E00895EF92FF920F931F93CF93AF
:100A1000DF931F92CDB7DEB77C018B0166E00E94A9
:100A2000BD01F7011282282F277D0230110511F434
:100A3000206207C00130110521F481E0F7018283B3
:100A40002860422F66E0C70129830E94100266E0F9
:100A5000C7010E94BD012981821721F0F70112828E
:100A600080E001C081E00F90DF91CF911F910F9145
:100A7000FF90EF90089566E00E94BD01282F287234
:100A8000203231F081E090E0283021F080E00895BC
:100A900082E090E008950F931F93CF93DF93EC01D2
:100AA0008B0160E00E94BD01482F437F01151105B5
:100AB00031F00130110511F4486001C04C6060E074
:100AC000CE01DF91CF911F910F910C941002CF9323
:100AD000DF93EC0161E088810E943B0861E089813D
:100AE0000E943B080E94700660E070E0CE010E9408
:100AF000810161E070E0CE010E94710165E070E06B
:100B000080E090E00E94A4074FE464E0CE010E94E0
:100B1000100263E070E0CE010E94CC0462E070E05D
:100B2000CE010E940305882311F081E08B8360E0F1
:100B300070E0CE010E94030562E070E0CE010E94E9
:100B40004B0540E06CE1CE010E94100240E767E0F7
:100B5000CE010E9410026CE4CE010E94DA03CE01A5
:100B60000E947B02CE01DF91CF910C94910260E054
:100B70000E94BD0183FF05C082FF06C082E090E0B5
:100B8000089580E090E0089581E090E00895CF938B
:100B9000DF93EC010E94A702682FCE010E94BD02E4
:100BA00022E04AE061E071E0CE010E94420324E0CD
:100BB0004CE064EF70E0CE010E94E90221E040E1E8
:100BC0006CEE70E0CE010E94420326E041E161EE4E
:100BD00070E0CE010E94E90221E041E06BED70E09F
:100BE000CE010E94E90221E042E061ED70E0CE0119
:100BF0000E94E90221E045E06BEC70E0CE010E942A
:100C0000E90221E046E062EC70E0CE010E94E902D8
:100C100021E040E06BEB70E0CE010E94E90222E0AF
:100C20004CE16DEA70E0CE010E94E902CE010E9423
:100C30003B05880F991F8F5E9D4FFC018591949114
:100C40009F938F938BE990E09F938F930E94090C61
:100C5000EB81F0E0EE0FFF1FE650FE4F859194917F
:100C60009F938F938CE890E09F938F930E94090C41
:100C7000CE010E94B705880F991F84529E4FFC0138
:100C8000859194919F938F9389E790E09F938F93A1
:100C90000E94090CCE010E94EF04880F991F89540D
:100CA0009E4FFC01859194919F938F9388E690E0ED
:100CB0009F938F930E94090C8DB79EB740960FB6F5
:100CC000F8949EBF0FBE8DBFDF91CF91089520E1B4
:100CD000629FB00111244F70462B64E00C94100207
:100CE000CF93CFB7F89480914C01811127C0EDE5E7
:100CF000F2E08491E9E4F2E09491E82FF0E0EE0F65
:100D0000FF1FEF58FD4FA591B4918C91892321F4D9
:100D100061E08AE00E94740861E08AE00E943B087A
:100D20008CB580618CBD8CB580648CBD61E08DE03C
:100D30000E943B0861E08BE00E943B0880914C01DF
:100D40008F5F80934C01CFBFCF910895CF93C82F71
:100D5000E0916901F0916A010190F081E02D682F26
:100D600089E691E009958C2F992787FD9095CF9181
:100D7000089560E070E086EA96E00C94AA0BEF928A
:100D8000FF920F931F9326E040E051EE60E070E089
:100D900089E691E00E948D090E94B90686E091E003
:100DA0009F938F930E94F50B80E591E00E94670569
:100DB0004FE06FE080E591E00E94670668E080E523
:100DC00091E00E94E10381EEE82E90EFF92E00EF12
:100DD00010EF20EF30E040E050E061E080E591E08E
:100DE0000E945C0480E591E00E94E7030F900F9061
:100DF00080E591E01F910F91FF90EF900C94C70553
:100E000080E591E00E944B04882339F043E06DE4D3
:100E100071E080E591E00E944F044AE050E060916B
:100E20004D0189E691E00E944E0B68E271E089E68F
:100E300091E00E94E20A4AE050E060914E0189E6AA
:100E400091E00E944E0B68E271E089E691E00E9419
:100E5000E20A4AE050E060914F0189E691E00C948B
:100E6000550B4AE069E080E591E00C94C7031F92BE
:100E70000F920FB60F9211242F933F938F939F934E
:100E8000AF93BF938091610190916201A091630142
:100E9000B09164013091600123E0230F2D3720F4DD
:100EA0000196A11DB11D05C026E8230F0296A11DC4
:100EB000B11D209360018093610190936201A09322
:100EC0006301B09364018091650190916601A091E6
:100ED0006701B09168010196A11DB11D8093650164
:100EE00090936601A0936701B0936801BF91AF91A1
:100EF0009F918F913F912F910F900FBE0F901F9058
:100F000018953FB7F8948091650190916601A09182
:100F10006701B091680126B5A89B05C02F3F19F065
:100F20000196A11DB11D3FBF6627782F892F9A2FEB
:100F3000620F711D811D911D42E0660F771F881F92
:100F4000991F4A95D1F70895CF92DF92EF92FF92C1
:100F5000CF93DF936B017C010E948107EB01C114E9
:100F6000D104E104F10489F00E946C0B0E94810716
:100F70006C1B7D0B683E734090F381E0C81AD1086A
:100F8000E108F108C851DC4FEACFDF91CF91FF9023
:100F9000EF90DF90CF9008958230910538F0880F60
:100FA000991F880F991F05970197F1F70895789475
:100FB00084B5826084BD84B5816084BD85B582605E
:100FC00085BD85B5816085BDEEE6F0E080818160FC
:100FD0008083E1E8F0E010828081826080838081FC
:100FE00081608083E0E8F0E0808181608083E1EBD4
:100FF000F0E0808184608083E0EBF0E080818160BC
:101000008083EAE7F0E08081846080838081826071
:10101000808380818160808380818068808310925A
:10102000C1000895833081F028F4813099F0823036
:10103000A1F008958730A9F08830B9F08430D1F458
:10104000809180008F7D03C0809180008F77809396
:101050008000089584B58F7702C084B58F7D84BDEC
:1010600008958091B0008F7703C08091B0008F7D8C
:101070008093B0000895CF93DF9390E0FC01E15C92
:10108000FD4F2491FC01ED5AFD4F8491882349F1D5
:1010900090E0880F991FFC01EF58FD4FA591B49186
:1010A00089599D4FFC01C591D4919FB7611108C02A
:1010B000F8948C91209582238C93888182230AC096
:1010C000623051F4F8948C91322F309583238C93B5
:1010D0008881822B888304C0F8948C91822B8C9316
:1010E0009FBFDF91CF9108950F931F93CF93DF930D
:1010F0001F92CDB7DEB7282F30E0F901E55DFD4F37
:101100008491F901E15CFD4F1491F901ED5AFD4F15
:1011100004910023C9F0882321F069830E941208FA
:101120006981E02FF0E0EE0FFF1FE959FD4FA59117
:10113000B4919FB7F8948C91611103C010958123ED
:1011400001C0812B8C939FBF0F90DF91CF911F9196
:101150000F910895FC01818D228D90E0805C9F4F5E
:10116000821B91098F7399270895FC01918D828DBF
:10117000981731F0828DE80FF11D858D90E008956C
:101180008FEF9FEF0895FC01918D828D981761F08C
:10119000828DDF01A80FB11D5D968C91928D9F5FAE
:1011A0009F73928F90E008958FEF9FEF089587E4EB
:1011B0009AE0892B49F080E090E0892B29F00E9489
:1011C000470A81110C9400000895FC01848DDF0111
:1011D000A80FB11DA35ABF4F2C91848D90E00196AA
:1011E0008F739927848FA689B7892C93A089B18999
:1011F0008C9180648C93938D848D981306C00288A3
:10120000F389E02D80818F7D80830895CF93DF93D4
:10121000EC01888D8823C9F0EA89FB89808185FDEE
:1012200005C0A889B9898C9186FD0FC00FB607FC4F
:10123000F5CF808185FFF2CFA889B9898C9185FF90
:10124000EDCFCE010E94E508E7CFDF91CF91089561
:10125000CF92DF92FF920F931F93CF93DF931F9252
:10126000CDB7DEB76C0181E0D60158968C935897C4
:101270005B969C915B975C968C915C97981307C0EA
:101280005096ED91FC915197808185FD2EC0F6011D
:10129000038D10E00F5F1F4F0F731127F02EF60123
:1012A000848DF81211C00FB607FCF9CFD601509605
:1012B000ED91FC915197808185FFF1CFC601698343
:1012C0000E94E5086981EBCF838DE80FF11DE35A99
:1012D000FF4F6083D6015B960C935B975296ED911E
:1012E000FC915397808180620CC0D6015696ED9197
:1012F000FC91579760835096ED91FC9151978081B6
:101300008064808381E090E00F90DF91CF911F9106
:101310000F91FF90DF90CF900895BF92CF92DF9210
:10132000EF92FF92CF93DF93EC016A017B01B22E23
:10133000E889F98982E08083411581EE58076105CB
:101340007105A1F060E079E08DE390E0A7019601DE
:101350000E946D0B2150310941095109569547955D
:1013600037952795211580E1380798F0E889F989A4
:10137000108260E874E88EE190E0A70196010E9477
:101380006D0B215031094109510956954795379503
:101390002795EC85FD853083EE85FF852083188EAB
:1013A000EC89FD89B082EA89FB8980818061808334
:1013B000EA89FB89808188608083EA89FB89808152
:1013C00080688083EA89FB8980818F7D8083DF91BB
:1013D000CF91FF90EF90DF90CF90BF9008951F9234
:1013E0000F920FB60F9211242F938F939F93EF9329
:1013F000FF93E0917901F0917A018081E0917F0182
:10140000F091800182FD12C09081809182018F5FF6
:101410008F7320918301821751F0E0918201F0E0F7
:10142000E759FE4F958F8093820101C08081FF9123
:10143000EF919F918F912F910F900FBE0F901F9062
:1014400018951F920F920FB60F9211242F933F936E
:101450004F935F936F937F938F939F93AF93BF93BC
:10146000EF93FF9389E691E00E94E508FF91EF91E9
:10147000BF91AF919F918F917F916F915F914F91AC
:101480003F912F910F900FBE0F901F90189589E6F6
:1014900091E00E94AA0821E0892B09F420E0822F24
:1014A000089510926C0110926B0188EE93E0A0E019
:1014B000B0E080936D0190936E01A0936F01B093A3
:1014C00070018EE291E090936A018093690185EC4E
:1014D00090E0909376018093750184EC90E0909376
:1014E00078018093770180EC90E090937A0180936B
:1014F000790181EC90E090937C0180937B0182ECF8
:1015000090E090937E0180937D0186EC90E0909333
:10151000800180937F0110928201109283011092CA
:10152000840110928501089508950E94D7070E94B2
:10153000940A0E94BF06C7EDD8E00E9400072097DA
:10154000E1F30E94D708F9CFCF92DF92EF92FF929A
:101550000F931F93CF93DF936C017A01EB01E60E9B
:10156000F71E00E010E0CE15DF0561F06991D601AD
:10157000ED91FC910190F081E02DC6010995080FD5
:10158000191FF1CFC801DF91CF911F910F91FF90EB
:10159000EF90DF90CF9008956115710581F0DB0128
:1015A0000D900020E9F7AD0141505109461B570B42
:1015B000DC01ED91FC910280F381E02D099480E043
:1015C00090E008950C94CC0A6AE371E00C94CC0A84
:1015D0008F929F92AF92BF92CF92DF92EF92FF9243
:1015E0000F931F93CF93DF93CDB7DEB7A1970FB6BD
:1015F000F894DEBF0FBECDBF7C01C42EE52FCB011A
:10160000D22E19A221E02D1510F02AE0D22E8E0143
:101610000F5D1F4F8D2C912CA12CB12C6C2D7E2F8A
:10162000A50194010E946D0B8C2DD29E801911246E
:10163000015011098A3014F4805D01C0895CF80101
:101640008083211531054105510521F0C22EE32F7C
:10165000CA01E4CFB801C7010E94CC0AA1960FB617
:10166000F894DEBF0FBECDBFDF91CF911F910F91D8
:10167000FF90EF90DF90CF90BF90AF909F908F90B2
:1016800008952115310541F4DC01ED91FC910190A3
:10169000F081E02D642F09940C94E80A9A01462FFA
:1016A00050E060E070E00C94410B0F931F93CF93D8
:1016B000DF93EC019A01462F50E060E070E00E9459
:1016C000410B8C01CE010E94E40A800F911FDF9133
:1016D000CF911F910F9108950895A1E21A2EAA1B90
:1016E000BB1BFD010DC0AA1FBB1FEE1FFF1FA217D2
:1016F000B307E407F50720F0A21BB30BE40BF50BCF
:10170000661F771F881F991F1A9469F76095709557
:10171000809590959B01AC01BD01CF0108950024F7
:10172000A7FD00942A173005400550056005700597
:10173000800590050895EE0FFF1F0590F491E02DB0
:101740000994FC0105900020E9F7809590958E0F93
:101750009F1F08950F931F93CF93DF93EC018B018D
:10176000009731F46115710519F480E090E038C0FC
:101770006EE070E081E090E00E94FD0DFC010097BA
:10178000A1F380E883830115110571F013870287A7
:1017900081E883838091060290910702892B21F4CE
:1017A000F0930702E09306022097C9F0D187C08723
:1017B0008381826083838091080290910902892B42
:1017C00071F4F0930902E093080280910A0290916B
:1017D0000B02892B21F4F0930B02E0930A02CF0154
:1017E000DF91CF911F910F910895A0E0B0E0EBEF52
:1017F000FBE00C94FD0FFE01359661917191AF01F4
:1018000080910802909109020E942B0CE2E00C9456
:101810001910A0E0B0E0EFE0FCE00C94FB0FFE013B
:1018200037966191719108E012E0D8018D919C91F9
:10183000DC0113962C911397286013962C93AF011B
:101840000E942B0CD801ED91FC912381277F2383EB
:10185000E4E00C941710ACE0B0E0E1E3FCE00C94A1
:10186000ED0F7C016B018A01FC01178216828381D6
:1018700081FFBDC1CE0101964C01F7019381F601B4
:1018800093FD859193FF81916F01882309F4ABC18A
:10189000853239F493FD859193FF81916F018532F3
:1018A00029F4B70190E00E945D0FE7CF512C312C55
:1018B00020E02032A0F48B3269F030F4803259F00D
:1018C000833269F420612CC08D3239F0803339F4D1
:1018D000216026C02260246023C0286021C027FD2B
:1018E00027C030ED380F3A3078F426FF06C0FAE012
:1018F0005F9E300D1124532E13C08AE0389E300DA8
:101900001124332E20620CC08E3221F426FD6BC1CF
:10191000206406C08C3611F4206802C0883641F479
:10192000F60193FD859193FF81916F018111C1CFE4
:10193000982F9F7D9554933028F40C5F1F4FFFE341
:10194000F9830DC0833631F0833771F0833509F0A8
:101950005BC022C0F801808189830E5F1F4F442441
:101960004394512C540115C03801F2E06F0E711CE4
:10197000F801A080B18026FF03C0652D70E002C091
:101980006FEF7FEFC5012C870E94520F2C0183015E
:101990002C852F77222E17C03801F2E06F0E711CB4
:1019A000F801A080B18026FF03C0652D70E002C061
:1019B0006FEF7FEFC5012C870E94400F2C012C8513
:1019C0002068222E830123FC1BC0832D90E0481643
:1019D0005906B0F4B70180E290E00E945D0F3A949E
:1019E000F4CFF50127FC859127FE81915F01B701B6
:1019F00090E00E945D0F31103A94F1E04F1A5108C7
:101A00004114510471F7E5C0843611F0893639F577
:101A1000F80127FF07C060817181828193810C5F8B
:101A20001F4F08C060817181882777FD8095982FAE
:101A30000E5F1F4F2F76B22E97FF09C090958095AD
:101A4000709561957F4F8F4F9F4F2068B22E2AE08F
:101A500030E0A4010E948F0FA82EA81844C085373B
:101A600029F42F7EB22E2AE030E025C0F22FF97F34
:101A7000BF2E8F36C1F018F4883579F0B4C08037A6
:101A800019F0883721F0AFC02F2F2061B22EB4FE9D
:101A90000DC08B2D8460B82E09C024FF0AC09F2F73
:101AA0009660B92E06C028E030E005C020E130E0A5
:101AB00002C020E132E0F801B7FE07C06081718109
:101AC000828193810C5F1F4F06C06081718180E02D
:101AD00090E00E5F1F4FA4010E948F0FA82EA81840
:101AE000FB2DFF77BF2EB6FE0BC02B2D2E7FA5142E
:101AF00050F4B4FE0AC0B2FC08C02B2D2E7E05C0E7
:101B00007A2C2B2D03C07A2C01C0752C24FF0DC01C
:101B1000FE01EA0DF11D8081803311F4297E09C098
:101B200022FF06C07394739404C0822F867809F054
:101B3000739423FD13C020FF06C05A2C731418F4AD
:101B4000530C5718732C731468F4B70180E290E0BB
:101B50002C870E945D0F73942C85F5CF731410F4BD
:101B6000371801C0312C24FF12C0B70180E390E088
:101B70002C870E945D0F2C8522FF17C021FF03C018
:101B800088E590E002C088E790E0B7010CC0822FA2
:101B9000867859F021FD02C080E201C08BE227FD6A
:101BA0008DE2B70190E00E945D0FA51438F4B701F3
:101BB00080E390E00E945D0F5A94F7CFAA94F4015D
:101BC000EA0DF11D8081B70190E00E945D0FA11028
:101BD000F5CF332009F451CEB70180E290E00E94A6
:101BE0005D0F3A94F6CFF7018681978102C08FEF9F
:101BF0009FEF2C96E2E10C9409100F931F93CF9363
:101C0000DF93869F8001879F100D969F100D1124F2
:101C1000C8010E94190EEC01009729F0A80160E0AC
:101C200070E00E944B0FCE01DF91CF911F910F9179
:101C30000895CF93DF938230910510F482E090E015
:101C4000E0910E02F0910F0220E030E0A0E0B0E061
:101C5000309739F14081518148175907B8F048173A
:101C6000590771F482819381109729F013969C9300
:101C70008E9312972CC090930F0280930E0227C070
:101C80002115310531F04217530718F0A901DB0186
:101C900001C0EF019A01BD01DF010280F381E02D57
:101CA000D7CF21153105F9F0281B390B2430310528
:101CB00080F48A819B816115710521F0FB0193837A
:101CC000828304C090930F0280930E02FE0132962D
:101CD00044C0FE01E20FF31F81939193225031091A
:101CE000398328833AC020910C0230910D02232BB6
:101CF00041F4209102013091030130930D022093B1
:101D00000C0220910001309101012115310541F4AF
:101D10002DB73EB74091040150910501241B350BAE
:101D2000E0910C02F0910D02E217F307A0F42E1BD4
:101D30003F0B2817390778F0AC014E5F5F4F24172F
:101D4000350748F04E0F5F1F50930D0240930C0271
:101D50008193919302C0E0E0F0E0CF01DF91CF9159
:101D60000895CF93DF93009709F487C0FC01329761
:101D700013821282C0910E02D0910F02209781F43B
:101D800020813181280F391F80910C0290910D0222
:101D90008217930779F5F0930D02E0930C026DC062
:101DA000DE0120E030E0AE17BF0750F412964D91EF
:101DB0005C9113979D014115510509F1DA01F3CFAB
:101DC000B383A28340815181840F951F8A179B079B
:101DD00071F48D919C911197840F951F02969183B8
:101DE000808312968D919C91139793838283211502
:101DF000310529F4F0930F02E0930E023EC0D901A1
:101E00001396FC93EE9312974D915D91A40FB51F1D
:101E1000EA17FB0779F480819181840F951F029660
:101E2000D90111969C938E938281938113969C93F2
:101E30008E931297E0E0F0E08A819B81009719F081
:101E4000FE01EC01F9CFCE01029628813981820F83
:101E5000931F20910C0230910D022817390769F465
:101E6000309729F410920F0210920E0202C01382D2
:101E70001282D0930D02C0930C02DF91CF9108958E
:101E8000FC010590615070400110D8F78095909545
:101E90008E0F9F1F0895DC0101C06D93415050408B
:101EA000E0F70895FC016150704001900110D8F7EF
:101EB000809590958E0F9F1F08950F931F93CF933A
:101EC000DF93182F092FEB018B8181FD03C08FEF6A
:101ED0009FEF20C082FF10C04E815F812C813D8129
:101EE000421753077CF4E881F9819F012F5F3F4F30
:101EF00039832883108306C0E885F985812F0995E9
:101F0000892B29F72E813F812F5F3F4F3F832E83FF
:101F1000812F902FDF91CF911F910F910895FA019A
:101F2000AA27283051F1203181F1E8946F936E7F18
:101F30006E5F7F4F8F4F9F4FAF4FB1E03ED0B4E009
:101F40003CD0670F781F891F9A1FA11D680F791F4A
:101F50008A1F911DA11D6A0F711D811D911DA11D5B
:101F600020D009F468943F912AE0269F112430196B
:101F7000305D3193DEF6CF010895462F4770405D06
:101F80004193B3E00FD0C9F7F6CF462F4F70405DB5
:101F90004A3318F0495D31FD4052419302D0A9F710
:101FA000EACFB4E0A6959795879577956795BA950A
:101FB000C9F700976105710508959B01AC010A2ED0
:101FC00006945795479537952795BA95C9F7620FA7
:101FD000731F841F951FA01D08952F923F924F924B
:101FE0005F926F927F928F929F92AF92BF92CF92A9
:101FF000DF92EF92FF920F931F93CF93DF93CDB7B2
:10200000DEB7CA1BDB0B0FB6F894DEBF0FBECDBF29
:1020100009942A88398848885F846E847D848C84FA
:102020009B84AA84B984C884DF80EE80FD800C8103
:102030001B81AA81B981CE0FD11D0FB6F894DEBFE6
:0C2040000FBECDBFED010895F894FFCF56
:10204C000000100280000A0D47657474696E6720E9
:10205C00737461727465642077697468204E52469B
:10206C0032344C30310A0D00090000000000280900
:10207C00A40AAA08C308B50806090D0A006E616E09
:0C208C0000696E66006F7666002E000092
:00000001FF
