:100000000C9445010C946D010C946D010C946D01E0
:100010000C946D010C946D010C946D010C946D01A8
:100020000C946D010C946D010C946D010C946D0198
:100030000C946D010C946D010C946D010C946D0188
:100040000C94BF070C946D010C94C90A0C94FB0A24
:100050000C946D010C946D010C946D010C946D0168
:100060000C946D010C946D01504120506F776572B6
:1000700009203D2025530D0A00435243204C656E54
:1000800067746809203D2025530D0A004D6F646593
:100090006C0909203D2025530D0A0044617461203C
:1000A0005261746509203D2025530D0A0044594EC4
:1000B00050442F4645415455524500434F4E464902
:1000C000470052465F53455455500052465F4348DF
:1000D00000454E5F52584144445200454E5F4141F5
:1000E0000052585F50575F50302D360054585F41D2
:1000F0004444520052585F414444525F50322D35BF
:100100000052585F414444525F50302D31000D0A77
:1001100000253032780020307800255309256320EF
:100120003D000D0A00203078253032780025530933
:100130002563203D004F4253455256455F54583D7C
:10014000253032783A20504F4C535F434E543D2572
:1001500078204152435F434E543D25780D0A0053A9
:1001600054415455530909203D20307825303278C8
:100170002052585F44523D25782054585F44533DE7
:100180002578204D41585F52543D25782052585FC4
:10019000505F4E4F3D25782054585F46554C4C3D9E
:1001A00025780D0A0000010203040511121314152D
:1001B000160A0B0C0D0E0FD501CE01C701BF015061
:1001C000415F48494748004C415F4D45440050411C
:1001D0005F4C4F570050415F4D494E00F101EA011D
:1001E000E2013136206269747300382062697473E9
:1001F0000044697361626C6564000802FE016E521E
:100200004632344C30312B006E524632344C303151
:100210000025021F0217023235304B425053003284
:100220004D42505300314D42505300000000080031
:1002300002010000030407000000000000000001AC
:10024000020408102040800102040810200102046A
:10025000081020040404040404040402020202023C
:100260000203030303030300000000230026002908
:100270000000000000250028002B000000000024E2
:100280000027002A0000B9072B0B11241FBECFEF57
:10029000D8E0DEBFCDBF11E0A0E0B1E0E0EEF1E2DA
:1002A00002C005900D92AE33B107D9F722E0AEE35C
:1002B000B1E001C01D92A230B207E1F712E0CAE836
:1002C000D2E004C02297FE010E94580CC638D10724
:1002D000C9F70E946F0B0C94EE100C9400008EBDB9
:1002E00000000DB407FEFDCF8EB508952CB52F7D0F
:1002F0002CBD2CB5237F2CBD2CB52C7F2CBD2DB552
:100300002E7F2DBDFC0181810C942509FC0180818B
:100310000C942509CF92DF92EF92FF920F931F93D7
:10032000CF93DF9300D0CDB7DEB78C01E62EF22E4F
:1003300060E070E049835A830E9476018E2D8F71B0
:100340000E946F01E82E4981C42E5A81D52EF40EE9
:10035000FC1439F08FEF0E946F01F60181936F0159
:10036000F7CF61E070E0C8010E9476018E2D0F90FA
:100370000F90DF91CF911F910F91FF90EF90DF9041
:10038000CF9008951F93CF93DF93EC01162F60E079
:1003900070E00E947601812F8F710E946F018FEFB4
:1003A0000E946F01182F61E070E0CE010E9476017B
:1003B000812FDF91CF911F910895CF92DF92EF921D
:1003C000FF920F931F93CF93DF9300D0CDB7DEB78B
:1003D0008C01E62EF22E60E070E049835A830E9481
:1003E00076018E2D8F7180620E946F01E82E498107
:1003F000C42E5A81D52EF40EFC1431F0F6018191F1
:100400006F010E946F01F8CF61E070E0C8010E94A7
:1004100076018E2D0F900F90DF91CF911F910F914C
:10042000FF90EF90DF90CF900895EF92FF921F938F
:10043000CF93DF931F92CDB7DEB77C01162F60E01C
:1004400070E049830E947601812F8F7180620E9443
:100450006F01182F4981842F0E946F0161E070E0C5
:10046000C7010E947601812F0F90DF91CF911F91DC
:10047000FF90EF900895BF92CF92DF92EF92FF929C
:100480000F931F93CF93DF938C01D62EB72EFC01D1
:10049000C481F42EC41708F4FC2EF8018681811162
:1004A00003C0EC2EEF1801C0E12C60E070E0C80141
:1004B0000E94760180EA0E946F01C82ECD2DDB2DAF
:1004C000FD0CFC1621F089910E946F01FACFCE2D10
:1004D000CC2329F080E00E946F01C150F9CF61E088
:1004E00070E0C8010E9476018C2DDF91CF911F91A1
:1004F0000F91FF90EF90DF90CF90BF9008951F93E2
:10050000CF93DF93EC0160E070E00E94760182EE11
:100510000E946F01182F61E070E0CE010E94760109
:10052000812FDF91CF911F9108951F93CF93DF9378
:10053000EC0160E070E00E94760181EE0E946F01A4
:10054000182F61E070E0CE010E947601812FDF91CB
:10055000CF911F9108951F93CF93DF93EC0160E03B
:1005600070E00E9476018FEF0E946F01182F61E00A
:1005700070E0CE010E947601812FDF91CF911F9113
:100580000895862F90E0262F21701F922F93959526
:100590008795877099279F938F9364FB882780F9AD
:1005A0001F928F9365FB882780F91F928F9366FBBC
:1005B000882780F91F928F931F926F938FE591E0A8
:1005C0009F938F930E94D30C8DB79EB70E960FB654
:1005D000F8949EBF0FBE8DBF0895AF92BF92DF9279
:1005E000EF92FF920F931F93CF93DF9300D0CDB77D
:1005F000DEB78C01F42EE22ECB0169837A830E9450
:100600006B0C69817A81089710F489E001C080E061
:100610001F928F937F936F93EDE2F1E0FF93EF933F
:100620000E94D30CEF0C0F900F900F900F900F9033
:100630000F9035E2A32E31E0B32EFE1499F0DD24A5
:10064000D394DF0C6F2DC8010E94C2011F928F93BB
:10065000BF92AF920E94D30C0F900F900F900F900B
:10066000FD2CEBCF82E291E09F938F930E94D30CFD
:100670000F900F900F900F90DF91CF911F910F91DE
:10068000FF90EF90DF90BF90AF9008956F927F92B0
:100690008F929F92AF92BF92CF92DF92EF92FF9292
:1006A0000F931F93CF93DF93CDB7DEB727970FB686
:1006B000F894DEBF0FBECDBF4C01142F722ECB01BC
:1006C0006E837F830E946B0C6E817F81089710F48C
:1006D00089E001C080E01F928F937F936F93EAE1DE
:1006E000F1E0FF93EF930E94D30C710E0F900F90E7
:1006F0000F900F900F900F90CE0101967C0146E174
:10070000C42E41E0D42E51E1A52E51E0B52E17158F
:1007100029F166246394610E25E0A701612FC401CD
:100720000E948A01DF92CF920E94D30C8E010A5F51
:100730001F4F0F900F900E151F0571F0F801829159
:100740008F011F928F93BF92AF920E94D30C0F9094
:100750000F900F900F90EFCF162DD9CF8EE091E034
:100760009F938F930E94D30C0F900F9027960FB6F4
:10077000F894DEBF0FBECDBFDF91CF911F910F91D7
:10078000FF90EF90DF90CF90BF90AF909F908F90B1
:100790007F906F900895FC016083418381E08283A4
:1007A000138280E284831582168210861186128657
:1007B000138614861586168617860895462F603888
:1007C00008F04FE765E00C941502613208F060E232
:1007D000FC0164830895CF93DF93EC0160E00E94F5
:1007E000C201482F436060E0CE010E94150240E73D
:1007F00067E0CE010E941502288539854A855B8510
:100800006C857D858E859F85A0E00E944A0C41F015
:1008100025E0AE01485F5F4F6AE0CE010E94DD0136
:10082000CE010E947F02CE010E94950261E070E03D
:10083000CE010E94860182E890E0DF91CF910C9476
:100840006008CF93DF93EC0160E070E00E948601C6
:10085000CE010E949502CE01DF91CF910C947F02D0
:10086000CF93DF93EC0160E00E94C201482F4D7FDF
:1008700060E0CE01DF91CF910C941502FF920F93AF
:100880001F93CF93DF93EC018B01F42E60E00E9465
:10089000C201482F4C7F426060E0CE010E941502E9
:1008A00086E990E00E9460084F2DB801CE010E94B9
:1008B0003B0261E070E0CE010E9486018FE090E093
:1008C0000E94600860E070E0CE01DF91CF911F913F
:1008D0000F91FF900C9486011F93CF93DF93EC014F
:1008E00060E070E00E94760180E60E946F018FEF69
:1008F0000E946F01182F61E070E0CE010E94760126
:10090000812FDF91CF911F910895EF92FF920F9366
:100910001F93CF93DF93EB018A01790140E767E0F2
:100920000E94150285FB992790F9988384FB9927EB
:1009300090F9F801908386FB882780F9F70180837E
:10094000DF91CF911F910F91FF90EF900895CF927B
:10095000DF92EF92FF920F931F93CF93DF9300D01C
:100960001F92CDB7DEB78C010E943E040E94090899
:100970006B017C0121E0AE014D5F5F4F68E0C80173
:100980000E948A01807359F40E9409086C197D093C
:100990008E099F09643F71408105910558F39801C4
:1009A0002B5F3F4FAE014F5F5F4FBE016E5F7F4FCA
:1009B000C8010E948504FA80F8018581882329F006
:1009C000C8010E946C04F8018783C8010E943004AA
:1009D000C8010E9495028F2D0F900F900F90DF910C
:1009E000CF911F910F91FF90EF90DF90CF900895DE
:1009F000EF92FF920F931F93CF93DF93CDB7DEB7A4
:100A000028970FB6F894DEBF0FBECDBF7C010983D7
:100A10001A832B833C834D835E836F83788725E025
:100A2000AE014F5F5F4F6AE00E94DD0125E0AE013D
:100A30004F5F5F4F60E1C7010E94DD01F701448114
:100A4000413208F040E261E1C7010E941502289698
:100A50000FB6F894DEBF0FBECDBFDF91CF911F91CF
:100A60000F91FF90EF9008950F931F93CF93DF9313
:100A70008C01EB0166E00E94C201482F497FC33020
:100A8000D10561F0C230D10511F4446008C0C13015
:100A9000D10511F4426003C0249709F4466066E072
:100AA000C801DF91CF911F910F910C94150266E060
:100AB0000E94C2018670863049F0843049F021E0FE
:100AC00090E0823009F020E0822F089583E001C099
:100AD00082E090E00895EF92FF920F931F93CF93DF
:100AE000DF931F92CDB7DEB77C018B0166E00E94D9
:100AF000C201F7011282282F277D0230110511F45F
:100B0000206207C00130110521F481E0F7018283E2
:100B10002860422F66E0C70129830E94150266E023
:100B2000C7010E94C2012981821721F0F7011282B8
:100B300080E001C081E00F90DF91CF911F910F9174
:100B4000FF90EF90089566E00E94C201282F28725E
:100B5000203231F081E090E0283021F080E00895EB
:100B600082E090E008950F931F93CF93DF93EC0101
:100B70008B0160E00E94C201482F437F01151105DF
:100B800031F00130110511F4486001C04C6060E0A3
:100B9000CE01DF91CF911F910F910C941502CF934D
:100BA000DF93EC0161E088810E94EC0861E08981BB
:100BB0000E94EC080E94D80660E070E0CE010E941E
:100BC000860161E070E0CE010E94760165E070E090
:100BD00080E090E00E9438084FE464E0CE010E947B
:100BE000150263E070E0CE010E94340562E070E01F
:100BF000CE010E946B05882311F081E08B8360E0B9
:100C000070E0CE010E946B0562E070E0CE010E94B0
:100C1000B30540E06CE1CE010E94150240E767E0B9
:100C2000CE010E9415026CE4CE010E94DE03CE01CB
:100C30000E947F02CE01DF91CF910C94950260E07B
:100C40000E94C20183FF05C082FF06C082E090E0DF
:100C5000089580E090E0089581E090E00895CF93BA
:100C6000DF93EC010E94AB02682FCE010E94C1020B
:100C700022E04AE061E071E0CE010E94460324E0F8
:100C80004CE064EF70E0CE010E94ED0221E040E113
:100C90006CEE70E0CE010E94460326E041E161EE79
:100CA00070E0CE010E94ED0221E041E06BED70E0CA
:100CB000CE010E94ED0221E042E061ED70E0CE0144
:100CC0000E94ED0221E045E06BEC70E0CE010E9455
:100CD000ED0221E046E062EC70E0CE010E94ED0200
:100CE00021E040E06BEB70E0CE010E94ED0222E0DB
:100CF0004CE16DEA70E0CE010E94ED02CE010E944F
:100D0000A305880F991F8F5E9D4FFC0185919491DB
:100D10009F938F938BE990E09F938F930E94D30CC6
:100D2000EB81F0E0EE0FFF1FE650FE4F85919491AE
:100D30009F938F938CE890E09F938F930E94D30CA6
:100D4000CE010E941F06880F991F84529E4FFC01FE
:100D5000859194919F938F9389E790E09F938F93D0
:100D60000E94D30CCE010E945705880F991F895409
:100D70009E4FFC01859194919F938F9388E690E01C
:100D80009F938F930E94D30C8DB79EB740960FB65A
:100D9000F8949EBF0FBE8DBFDF91CF91089520E1E3
:100DA000629FB00111244F70462B64E00C94150231
:100DB000CF93CFB7F89480913E01811127C0EDE524
:100DC000F2E08491E9E4F2E09491E82FF0E0EE0F94
:100DD000FF1FE558FD4FA591B4918C91892321F413
:100DE00061E08AE00E94250961E08AE00E94EC0847
:100DF0008CB580618CBD8CB580648CBD61E08DE06C
:100E00000E94EC0861E08BE00E94EC0880913E01BA
:100E10008F5F80933E01CFBFCF910895CF93C82FAE
:100E2000E0915B01F0915C010190F081E02D682F71
:100E30008BE591E009958C2F992787FD9095CF91AF
:100E4000089560E070E08EE097E00C94740C0F93CE
:100E50001F9326E040E051EE60E070E08BE591E00A
:100E60000E94670A0E9421078BE091E09F938F9375
:100E70000E94BF0C82E491E00E94CF054FE06FE03A
:100E800082E491E00E94CF0668E082E491E00E9453
:100E9000E50301EE10EF20EF30EF40EF50E060E0AF
:100EA00070E082E491E00E94F80482E491E00E9404
:100EB000EB0382E491E00E942F0662E086E00E944C
:100EC000EC088FE780933F0180934001109241012D
:100ED0000F900F901F910F910895AF92BF92CF92F4
:100EE000DF92EF92FF920F931F930E94A608BC011E
:100EF000882777FD8095982F1F921F921F922FEFC2
:100F00002F93A12CB12C6501EE24EA9413E0F12E6D
:100F100000E010E020E030E0A9010E94A60B862F3F
:100F20000F900F900F900F901F910F91FF90EF90E7
:100F3000DF90CF90BF90AF90089582E491E00E943F
:100F4000210480E090E00E946D0780933F0181E0E2
:100F500090E00E946D078093400186E00E945B094B
:100F60008093410143E06FE371E082E491E00C94EF
:100F7000A7044AE069E082E491E00C94CB031F925D
:100F80000F920FB60F9211242F933F938F939F933D
:100F9000AF93BF938091530190915401A09155015B
:100FA000B09156013091520123E0230F2D3720F4E8
:100FB0000196A11DB11D05C026E8230F0296A11DB3
:100FC000B11D209352018093530190935401A0933B
:100FD0005501B09356018091570190915801A0910D
:100FE0005901B0915A010196A11DB11D809357017D
:100FF00090935801A0935901B0935A01BF91AF91BA
:101000009F918F913F912F910F900FBE0F901F9046
:1010100018952FB7F8946091530170915401809105
:101020005501909156012FBF08953FB7F8948091D4
:10103000570190915801A0915901B0915A0126B5DC
:10104000A89B05C02F3F19F00196A11DB11D3FBF00
:101050006627782F892F9A2F620F711D811D911D90
:1010600042E0660F771F881F991F4A95D1F70895B0
:10107000CF92DF92EF92FF92CF93DF936B017C01CF
:101080000E941508EB01C114D104E104F10489F0B8
:101090000E94ED0B0E9415086C1B7D0B683E73408F
:1010A00090F381E0C81AD108E108F108C851DC4F7B
:1010B000EACFDF91CF91FF90EF90DF90CF9008952E
:1010C0008230910538F0880F991F880F991F059776
:1010D0000197F1F70895789484B5826084BD84B552
:1010E000816084BD85B5826085BD85B5816085BD23
:1010F000EEE6F0E0808181608083E1E8F0E010823C
:10110000808182608083808181608083E0E8F0E07C
:10111000808181608083E1EBF0E080818460808366
:10112000E0EBF0E0808181608083EAE7F0E080819D
:1011300084608083808182608083808181608083FD
:101140008081806880831092C10008958E3008F0FD
:101150008E50877020910A0190E4299F90011124FC
:10116000822B80937C0080917A00806480937A0047
:1011700080917A0086FDFCCF8091780020917900E3
:1011800090E0922B0895833081F028F4813099F01B
:101190008230A1F008958730A9F08830B9F084300A
:1011A000D1F4809180008F7D03C0809180008F7783
:1011B00080938000089584B58F7702C084B58F7DB9
:1011C00084BD08958091B0008F7703C08091B000F6
:1011D0008F7D8093B0000895CF93DF9390E0FC0162
:1011E000E15CFD4F2491FC01ED5AFD4F8491882371
:1011F00049F190E0880F991FFC01E558FD4FA5913A
:10120000B4918F589D4FFC01C591D4919FB7611146
:1012100008C0F8948C91209582238C938881822336
:101220000AC0623051F4F8948C91322F30958323A8
:101230008C938881822B888304C0F8948C91822BB4
:101240008C939FBFDF91CF9108950F931F93CF93FE
:10125000DF931F92CDB7DEB7282F30E0F901E55DAF
:10126000FD4F8491F901E15CFD4F1491F901ED5AB4
:10127000FD4F04910023C9F0882321F069830E9467
:10128000C3086981E02FF0E0EE0FFF1FEF58FD4F1C
:10129000A591B4919FB7F8948C91611103C01095FA
:1012A000812301C0812B8C939FBF0F90DF91CF9141
:1012B0001F910F910895CF93DF93282F30E0F9010C
:1012C000E55DFD4F8491F901E15CFD4FD491F90199
:1012D000ED5AFD4FC491CC2391F081110E94C308B7
:1012E000EC2FF0E0EE0FFF1FE959FD4FA591B491EF
:1012F0002C912D2381E090E021F480E002C080E079
:1013000090E0DF91CF910895FC01818D228D90E0D6
:10131000805C9F4F821B91098F7399270895FC0170
:10132000918D828D981731F0828DE80FF11D858D9A
:1013300090E008958FEF9FEF0895FC01918D828DCD
:10134000981761F0828DDF01A80FB11D5D968C9119
:10135000928D9F5F9F73928F90E008958FEF9FEF24
:10136000089581E29BE0892B49F080E090E0892B91
:1013700029F00E94210B81110C9400000895FC01BA
:10138000848DDF01A80FB11DA35ABF4F2C91848D0E
:1013900090E001968F739927848FA689B7892C9343
:1013A000A089B1898C9180648C93938D848D9813DE
:1013B00006C00288F389E02D80818F7D80830895A7
:1013C000CF93DF93EC01888D8823C9F0EA89FB89EC
:1013D000808185FD05C0A889B9898C9186FD0FC0E3
:1013E0000FB607FCF5CF808185FFF2CFA889B989B8
:1013F0008C9185FFEDCFCE010E94BF09E7CFDF9131
:10140000CF910895CF92DF92FF920F931F93CF93C6
:10141000DF931F92CDB7DEB76C0181E0D6015896FD
:101420008C9358975B969C915B975C968C915C979C
:10143000981307C05096ED91FC915197808185FDDE
:101440002EC0F601038D10E00F5F1F4F0F731127A1
:10145000F02EF601848DF81211C00FB607FCF9CFFB
:10146000D6015096ED91FC915197808185FFF1CF87
:10147000C60169830E94BF096981EBCF838DE80FA4
:10148000F11DE35AFF4F6083D6015B960C935B9787
:101490005296ED91FC915397808180620CC0D601E9
:1014A0005696ED91FC91579760835096ED91FC9183
:1014B000519780818064808381E090E00F90DF917C
:1014C000CF911F910F91FF90DF90CF900895BF9221
:1014D000CF92DF92EF92FF92CF93DF93EC016A01FC
:1014E0007B01B22EE889F98982E08083411581EE83
:1014F000580761057105A1F060E079E08DE390E0A7
:10150000A70196010E94FE0B2150310941095109A2
:101510005695479537952795211580E1380798F01E
:10152000E889F989108260E874E88EE190E0A7010B
:1015300096010E94FE0B215031094109510956952F
:10154000479537952795EC85FD853083EE85FF859A
:101550002083188EEC89FD89B082EA89FB8980811D
:1015600080618083EA89FB89808188608083EA8941
:10157000FB89808180688083EA89FB8980818F7DF7
:101580008083DF91CF91FF90EF90DF90CF90BF905D
:1015900008951F920F920FB60F9211242F938F93DD
:1015A0009F93EF93FF93E0916B01F0916C01808129
:1015B000E0917101F091720182FD12C090818091E1
:1015C00074018F5F8F7320917501821751F0E09144
:1015D0007401F0E0E55AFE4F958F8093740101C0CD
:1015E0008081FF91EF919F918F912F910F900FBE6E
:1015F0000F901F9018951F920F920FB60F92112403
:101600002F933F934F935F936F937F938F939F930A
:10161000AF93BF93EF93FF938BE591E00E94BF09D7
:10162000FF91EF91BF91AF919F918F917F916F91BA
:101630005F914F913F912F910F900FBE0F901F9090
:1016400018958BE591E00E94840921E0892B09F42B
:1016500020E0822F089510925E0110925D0188EEC5
:1016600093E0A0E0B0E080935F0190936001A093CD
:101670006101B093620181E391E090935C018093FA
:101680005B0185EC90E0909368018093670184ECA6
:1016900090E090936A018093690180EC90E09093D0
:1016A0006C0180936B0181EC90E090936E018093CC
:1016B0006D0182EC90E09093700180936F0186EC55
:1016C00090E09093720180937101109274011092D6
:1016D00075011092760110927701089508950E9485
:1016E0006B080E946E0B0E942707C1EBD9E00E9495
:1016F0009D072097E1F30E94B109F9CFCF92DF92C5
:10170000EF92FF920F931F93CF93DF936C017A01B7
:10171000EB01E60EF71E00E010E0CE15DF0561F0EC
:101720006991D601ED91FC910190F081E02DC60107
:101730000995080F191FF1CFC801DF91CF911F91B3
:101740000F91FF90EF90DF90CF9008954F925F92AE
:101750006F927F92AF92BF92CF92DF92EF92FF9201
:101760000F931F93CF93DF93CDB7DEB729013A01D3
:10177000621B730B840B950B29893A894B895C8911
:101780002A193B094C095D09298B3A8B4B8B5C8BE1
:101790009B01AC0169897A898B899C890E94EE0B37
:1017A000E418F50806091709A80197010E94200C02
:1017B0002A0D3B1D4C1D5D1DCA01B901DF91CF9162
:1017C0001F910F91FF90EF90DF90CF90BF90AF905F
:1017D0007F906F905F904F9008950895DB018F93F5
:1017E0009F930E943F0CBF91AF91A29F800D911DCE
:1017F000A39F900DB29F900D11240895A1E21A2E7F
:10180000AA1BBB1BFD010DC0AA1FBB1FEE1FFF1FA4
:10181000A217B307E407F50720F0A21BB30BE40BF4
:10182000F50B661F771F881F991F1A9469F760953B
:101830007095809590959B01AC01BD01CF010895F5
:10184000052E97FB1EF400940E94370C57FD07D01D
:101850000E94FE0B07FC03D04EF40C94370C5095FD
:101860004095309521953F4F4F4F5F4F089590958C
:101870008095709561957F4F8F4F9F4F08950E947F
:101880005C0CA59F900DB49F900DA49F800D911DA1
:10189000112408950024A7FD00942A17300540055F
:1018A000500560057005800590050895EE0FFF1F37
:1018B0000590F491E02D0994A29FB001B39FC0015F
:1018C000A39F700D811D1124911DB29F700D811D6C
:1018D0001124911D0895FC0105900020E9F78095E1
:1018E00090958E0F9F1F08950F931F93CF93DF93B3
:1018F000EC018B01009731F46115710519F480E05A
:1019000090E038C06EE070E081E090E00E94C70E89
:10191000FC010097A1F380E883830115110571F0A4
:101920001387028781E883838091F8019091F90100
:10193000892B21F4F093F901E093F8012097C9F085
:10194000D187C0878381826083838091FA019091DF
:10195000FB01892B71F4F093FB01E093FA01809174
:10196000FC019091FD01892B21F4F093FD01E0939E
:10197000FC01CF01DF91CF911F910F910895A0E05D
:10198000B0E0E5ECFCE00C94C710FE0135966191E7
:101990007191AF018091FA019091FB010E94F50CC9
:1019A000E2E00C94E310A0E0B0E0E9EDFCE00C9480
:1019B000C510FE013796619171910AEF11E0D801CF
:1019C0008D919C91DC0113962C91139728601396AE
:1019D0002C93AF010E94F50CD801ED91FC9123816D
:1019E000277F2383E4E00C94E110ACE0B0E0EBEF60
:1019F000FCE00C94B7107C016B018A01FC0117829A
:101A00001682838181FFBDC1CE0101964C01F70191
:101A10009381F60193FD859193FF81916F01882356
:101A200009F4ABC1853239F493FD859193FF81911F
:101A30006F01853229F4B70190E00E942710E7CFAB
:101A4000512C312C20E02032A0F48B3269F030F49C
:101A5000803259F0833269F420612CC08D3239F024
:101A6000803339F4216026C02260246023C02860BE
:101A700021C027FD27C030ED380F3A3078F426FF1B
:101A800006C0FAE05F9E300D1124532E13C08AE089
:101A9000389E300D1124332E20620CC08E3221F47A
:101AA00026FD6BC1206406C08C3611F4206802C08C
:101AB000883641F4F60193FD859193FF81916F0182
:101AC0008111C1CF982F9F7D9554933028F40C5FDE
:101AD0001F4FFFE3F9830DC0833631F0833771F078
:101AE000833509F05BC022C0F801808189830E5FD5
:101AF0001F4F44244394512C540115C03801F2E087
:101B00006F0E711CF801A080B18026FF03C0652D07
:101B100070E002C06FEF7FEFC5012C870E941C10A0
:101B20002C0183012C852F77222E17C03801F2E07B
:101B30006F0E711CF801A080B18026FF03C0652DD7
:101B400070E002C06FEF7FEFC5012C870E940A1082
:101B50002C012C852068222E830123FC1BC0832DA1
:101B600090E048165906B0F4B70180E290E00E9478
:101B700027103A94F4CFF50127FC859127FE819137
:101B80005F01B70190E00E94271031103A94F1E014
:101B90004F1A51084114510471F7E5C0843611F011
:101BA000893639F5F80127FF07C06081718182818C
:101BB00093810C5F1F4F08C060817181882777FD7A
:101BC0008095982F0E5F1F4F2F76B22E97FF09C07A
:101BD00090958095709561957F4F8F4F9F4F2068AE
:101BE000B22E2AE030E0A4010E945910A82EA818B5
:101BF00044C0853729F42F7EB22E2AE030E025C07C
:101C0000F22FF97FBF2E8F36C1F018F4883579F0A6
:101C1000B4C0803719F0883721F0AFC02F2F206172
:101C2000B22EB4FE0DC08B2D8460B82E09C024FFE7
:101C30000AC09F2F9660B92E06C028E030E005C08C
:101C400020E130E002C020E132E0F801B7FE07C039
:101C500060817181828193810C5F1F4F06C060811A
:101C6000718180E090E00E5F1F4FA4010E94591027
:101C7000A82EA818FB2DFF77BF2EB6FE0BC02B2D6C
:101C80002E7FA51450F4B4FE0AC0B2FC08C02B2D60
:101C90002E7E05C07A2C2B2D03C07A2C01C0752C0A
:101CA00024FF0DC0FE01EA0DF11D8081803311F487
:101CB000297E09C022FF06C07394739404C0822F4A
:101CC000867809F0739423FD13C020FF06C05A2CB8
:101CD000731418F4530C5718732C731468F4B70169
:101CE00080E290E02C870E94271073942C85F5CF1A
:101CF000731410F4371801C0312C24FF12C0B7013F
:101D000080E390E02C870E9427102C8522FF17C0CB
:101D100021FF03C088E590E002C088E790E0B701AA
:101D20000CC0822F867859F021FD02C080E201C0EC
:101D30008BE227FD8DE2B70190E00E942710A514E9
:101D400038F4B70180E390E00E9427105A94F7CF4F
:101D5000AA94F401EA0DF11D8081B70190E00E9480
:101D60002710A110F5CF332009F451CEB70180E23E
:101D700090E00E9427103A94F6CFF7018681978170
:101D800002C08FEF9FEF2C96E2E10C94D3100F93DB
:101D90001F93CF93DF93869F8001879F100D969F9F
:101DA000100D1124C8010E94E30EEC01009729F0E8
:101DB000A80160E070E00E941510CE01DF91CF9184
:101DC0001F910F910895CF93DF938230910510F406
:101DD00082E090E0E0910002F091010220E030E02A
:101DE000A0E0B0E0309739F14081518148175907A0
:101DF000B8F04817590771F482819381109729F040
:101E000013969C938E9312972CC09093010280930B
:101E1000000227C02115310531F04217530718F091
:101E2000A901DB0101C0EF019A01BD01DF010280C0
:101E3000F381E02DD7CF21153105F9F0281B390B9F
:101E40002430310580F48A819B816115710521F070
:101E5000FB019383828304C090930102809300026C
:101E6000FE01329644C0FE01E20FF31F819391936D
:101E700022503109398328833AC02091FE013091E4
:101E8000FF01232B41F4209106013091070130938B
:101E9000FF012093FE0120910401309105012115DD
:101EA000310541F42DB73EB7409108015091090129
:101EB000241B350BE091FE01F091FF01E217F307BF
:101EC000A0F42E1B3F0B2817390778F0AC014E5FAA
:101ED0005F4F2417350748F04E0F5F1F5093FF01E7
:101EE0004093FE018193919302C0E0E0F0E0CF01C6
:101EF000DF91CF910895CF93DF93009709F487C0C6
:101F0000FC01329713821282C0910002D09101022B
:101F1000209781F420813181280F391F8091FE01A3
:101F20009091FF018217930779F5F093FF01E093F9
:101F3000FE016DC0DE0120E030E0AE17BF0750F4B7
:101F400012964D915C9113979D014115510509F130
:101F5000DA01F3CFB383A28340815181840F951FAF
:101F60008A179B0771F48D919C911197840F951F8F
:101F700002969183808312968D919C9113979383FF
:101F800082832115310529F4F0930102E0930002C8
:101F90003EC0D9011396FC93EE9312974D915D913B
:101FA000A40FB51FEA17FB0779F480819181840F94
:101FB000951F0296D90111969C938E9382819381ED
:101FC00013969C938E931297E0E0F0E08A819B81B8
:101FD000009719F0FE01EC01F9CFCE01029628819D
:101FE0003981820F931F2091FE013091FF01281744
:101FF000390769F4309729F4109201021092000217
:1020000002C013821282D093FF01C093FE01DF91C0
:10201000CF910895FC010590615070400110D8F7F0
:10202000809590958E0F9F1F0895DC0101C06D93E0
:1020300041505040E0F70895FC016150704001901C
:102040000110D8F7809590958E0F9F1F08950F93DC
:102050001F93CF93DF93182F092FEB018B8181FD05
:1020600003C08FEF9FEF20C082FF10C04E815F81C1
:102070002C813D81421753077CF4E881F9819F014F
:102080002F5F3F4F39832883108306C0E885F98589
:10209000812F0995892B29F72E813F812F5F3F4F93
:1020A0003F832E83812F902FDF91CF911F910F912E
:1020B0000895FA01AA27283051F1203181F1E894DE
:1020C0006F936E7F6E5F7F4F8F4F9F4FAF4FB1E02B
:1020D0003ED0B4E03CD0670F781F891F9A1FA11D26
:1020E000680F791F8A1F911DA11D6A0F711D811D27
:1020F000911DA11D20D009F468943F912AE0269FEC
:1021000011243019305D3193DEF6CF010895462F4A
:102110004770405D4193B3E00FD0C9F7F6CF462F2B
:102120004F70405D4A3318F0495D31FD4052419394
:1021300002D0A9F7EACFB4E0A69597958795779551
:102140006795BA95C9F700976105710508959B01D8
:10215000AC010A2E06945795479537952795BA9561
:10216000C9F7620F731F841F951FA01D08952F923A
:102170003F924F925F926F927F928F929F92AF9217
:10218000BF92CF92DF92EF92FF920F931F93CF9364
:10219000DF93CDB7DEB7CA1BDB0B0FB6F894DEBFFB
:1021A0000FBECDBF09942A88398848885F846E8421
:1021B0007D848C849B84AA84B984C884DF80EE806B
:1021C000FD800C811B81AA81B981CE0FD11D0FB674
:1021D000F894DEBF0FBECDBFED010895F894FFCF98
:1021E00001000000000002028000010A0D47657432
:1021F00074696E67207374617274656420776974A2
:1022000068204E524632344C30310A0D0000000036
:0E22100000020A7E0B84099D098F09E0090077
:00000001FF
